:020000040800F2
:100000008006002089010008910100089301000882
:100010009501000897010008990100080000000000
:100020000000000000000000000000009B0100082C
:100030009D010008000000009F010008E103000886
:10004000A3010008A3010008A3010008A301000800
:10005000A3010008A3010008A3010008A3010008F0
:10006000A3010008A3010008A3010008A3010008E0
:10007000A3010008A3010008A3010008A3010008D0
:10008000A3010008A3010008A3010008A3010008C0
:10009000A3010008A3010008A3010008A3010008B0
:1000A000A3010008A3010008A3010008A3010008A0
:1000B000A3010008A301000800000000A30100083C
:1000C000A30100080000000000000000A3010008D8
:1000D00000000000A3010008A301000800000000C8
:1000E000A3010008A3010008A301000800F002F822
:1000F00000F03AF80AA090E8000C82448344AAF188
:100100000107DA4501D100F02FF8AFF2090EBAE885
:100110000F0013F0010F18BFFB1A43F0010318473B
:100120002004000040040000103A24BF78C878C1C1
:10013000FAD8520724BF30C830C144BF04680C60ED
:10014000704700000023002400250026103A28BF35
:1001500078C1FBD8520728BF30C148BF0B60704739
:100160001FB51FBD10B510BD00F031F81146FFF7E7
:10017000F7FF00F0B1F900F04FF803B4FFF7F2FF1A
:1001800003BC00F057F800000948804709480047C1
:10019000FEE7FEE7FEE7FEE7FEE7FEE7FEE7FEE737
:1001A000FEE7FEE704480549054A064B7047000094
:1001B000F1030008ED000008800000208006002008
:1001C000800200208002002070477047704775460B
:1001D00000F02CF8AE4605006946534620F00700B3
:1001E000854618B020B5FFF7DDFFBDE820404FF091
:1001F00000064FF000074FF000084FF0000B21F011
:100200000701AC46ACE8C009ACE8C009ACE8C009DD
:10021000ACE8C0098D46704710B50446AFF30080C6
:100220002046BDE81040FFF7A8BF00000048704717
:100230002000002001491820ABBEFEE72600020086
:10024000704700000B48806940F00400094988614C
:100250000846806940F0080088610846806940F0DF
:1002600001008861044805490860082004490860C5
:1002700070470000001002400030B0B40008014098
:10028000000C01401A48806940F480501849886188
:100290001848008820F008001649088008460088A1
:1002A00020F0100008800846008820F02000088018
:1002B0000846008820F0010008800846008820F0E9
:1002C000020008800846008820F400600880084684
:1002D000008820F0800008800846008840F4007004
:1002E00008800846008840F004000880704700003D
:1002F000001002400030014010B500F001F810BDC0
:100300000CB50020019000903348006840F4803024
:100310003149086000BF3048006800F400300090A8
:100320000198401C0190009818B90198B0F5A06F91
:10033000F1D12948006800F4003010B1012000908C
:1003400001E0002000900098012843D12348006874
:1003500040F01000214908600846006820F00300C2
:1003600008600846006840F0020008601A484068CB
:10037000194948600846406848600846406840F4AB
:10038000806048600846406820F47C104860084659
:10039000406840F4E81048600846006840F080700B
:1003A000086000BF0C48006800F000700028F9D019
:1003B0000948406820F00300074948600846406843
:1003C00040F00200486000BF0348406800F00C00A5
:1003D0000828F9D10CBD00000010024000200240A6
:1003E00002480068401C014908607047080000206E
:1003F00010B51348006840F0010011490860084634
:100400004068104908400E494860084600680E4997
:1004100008400B4908600846006820F48020086006
:100420000846406820F4FE0048604FF41F008860D2
:10043000FFF762FF4FF000600449086010BD000044
:10044000001002400000FFF8FFFFF6FE08ED00E09C
:1004500010B51048006840F2E731B0FBF1F04FF002
:10046000E021486148170F21002804DB0A07130E1A
:10047000094A135406E00A07140E084A00F00F0355
:100480001B1FD45400BF00204FF0E02188610620DC
:10049000086110BD0C00002000E400E018ED00E051
:1004A0004FF0E021096941F001014FF0E0221161B4
:1004B0000021084A116000BF064909688142FBD348
:1004C0004FF0E021096921F001014FF0E0221161B4
:1004D0007047000008000020FFF7B4FEFFF7D2FECF
:1004E000FFF7B6FF12E00A48006800F00100094972
:1004F00008600948006840F008000749086005499D
:10050000087800F00BF80A20FFF7CAFFEBE70000BD
:10051000080C014000000020140801400749098828
:1005200041F04001054A11801146888100BF03490E
:10053000098901F002010029F9D07047003001401B
:1005400060050008000000202000000028010008CD
:10055000800500082000002060060000440100081B
:1005600000000000000000000000000000A24A049B
:100570000000000000000000010203040607080953
:040000050800018965
:00000001FF
